:0300000002023CBD
:0C023C00787FE4F6D8FD75814E02028345
:1003F800C0F9A4B0999282F880908883C6A1868EAD
:010408007F74
:1002C8000438C0C0C0C0024B0000023C0000C1019D
:1002D8000830FFBFFFFFFDFDFDFF024D01060C3F8B
:1002E8000004000100050001000600010828FF00C5
:1002F800010000FF0001013E00C185C184C182C127
:1003080080C1830121000122000123FF0124FF0194
:0803180025FF0126FF0127FF6C
:10000E00D2AFC294758911758CFC758A67D2A9D24C
:10001E008CD28EC3E54C94F4E54B940140F530013F
:10002E00F2E4F54BF54CAF4A04A807088002C3333F
:10003E00D8FCFF74302548F8E64FF68543478544D3
:10004E004885454985464A853F4385404485414517
:10005E00854246E53E25E02428F8E6FF3395E0FE8E
:10006E00EF2540F540EE353FF53FE53E25E02429EE
:10007E00F8E6FF3395E0FEEF2542F542EE3541F509
:10008E0041E540B4FF0BE53FB4FF06753F007540F8
:10009E0007E5406408453F7004F53FF540E542B47E
:1000AE00FF0BE541B4FF06754100754207E542645A
:1000BE000845417004F541F542AF427401A80708A6
:1000CE008002C333D8FCF4FF74302540F8E65FF6A7
:1000DE00E54DB54021E4B53F1DE54EB54218E4B5FA
:1000EE004114053DE53D7002053CE58B5407F54D89
:1000FE00E58D5407F54EAF4E7401A807088002C374
:10010E0033D8FCF4FF7430254DF8E65FF6AE3CAF05
:10011E003D7C007D0A12032174F82DF58274033C98
:10012E00F583E493F538AE3CAF3D7C007D0A1203B7
:10013E00217C007D0A12032174F82DF58274033C94
:10014E00F583E493F539AE3CAF3D7C007D6412033C
:10015E00217C007D0A12032174F82DF58274033C74
:10016E00F583E493F53AAE3CAF3D7C037DE8120394
:10017E00217C007D0A12032174F82DF58274033C54
:09018E00F583E493F53B02002126
:03000B0002037677
:10037600C0E0C0F0C083C082C0D075D000C000C04D
:1003860001C002C003C004C005C006C007758CFCCE
:10039600758A671203BA120197D007D006D005D026
:1003A60004D003D002D001D000D0D0D082D083D0E8
:0403B600F0D0E03271
:1003BA00054CE54C7002054B0521E521B40C03E41C
:1003CA00F521E521C394045011D2937580FFE5907D
:1003DA0054F84521F5907438800DC2937580FFE575
:0D03EA002124FCF590742C2521F8E6F58007
:0103F70022E3
:10019700E52214601E14602F14604024037050C2BF
:1001A700A3E52325E0FFA2A7E4334FF523D2A30558
:1001B70022804FC2A2E52525E0FFA2A7E4334FF531
:1001C70025D2A20522803BC2A1E52425E0FFA2A7F4
:1001D700E4334FF524D2A105228027C2A0E52625C6
:1001E700E0FFA2A7E4334FF526D2A005228013C271
:1001F700A0E52725E0FFA2A6E4334FF527D2A0E428
:10020700F522E5237003F53E22E5247004753E01CF
:1002170022E5257004753E0222E5267004753E032B
:1002270022E5277003C20322E527B4FF0720030452
:04023700D203B2013B
:01023B0022A0
:1002480002000EE493A3F8E493A34003F68001F2BE
:1002580008DFF48029E493A3F85407240CC8C333B7
:10026800C4540F4420C8834004F456800146F6DF86
:10027800E4800B01020408102040809002C8E47E4C
:10028800019360BCA3FF543F30E509541FFEE4937B
:10029800A360010ECF54C025E060A840B8E493A342
:1002A800FAE493A3F8E493A3C8C582C8CAC583CA6D
:1002B800F0A3C8C582C8CAC583CADFE9DEE780BE25
:0103200000DC
:10032100BC000BBE0029EF8DF084FFADF022E4CCC0
:10033100F875F008EF2FFFEE33FEEC33FCEE9DEC89
:10034100984005FCEE9DFE0FD5F0E9E4CEFD22EDCF
:10035100F8F5F0EE8420D21CFEADF075F008EF2F19
:10036100FFED33FD4007985006D5F0F222C398FD0A
:050371000FD5F0EA22A7
:00000001FF
