:0300000002088C67
:0C088C00787FE4F6D8FD7581200208D3C7
:1003ED00FFEFEFDFDF3FBFFFFFF7776F6F9FDFFFA0
:1003FD00FFFBBBB7B74FEFFFFFFDDDDBDB2777FF64
:10040D00FFFEEE6D6D93BBFFFF7F77B6B6C9DDFFC7
:10041D00FFBFBBDBDBE4EEFFFF5FDDEDEDF277FF52
:10042D00FF2F6E7676793BFFFF17B7BBBBBC1DFF69
:10043D00FF8BDBDDDDDE8EFFFF456D6E6E6F47FFE3
:10044D00FFA236B7B7B7A3FFFFD19B5BDBDBD1FFB5
:10045D00FFE8CDAD6DEDE8FFFFF4E6D6B676F4FF1F
:10046D00FF7A736B5B3B7AFFFFBDB9B5AD9DBDFFE9
:10047D00FFDEDCDAD6CEDEFFFFEFEEEDEBE7EFFFD2
:10048D00FFF7F7F6F5F3F7FFFF7B7BFBFAF9FBFFC1
:10049D00FFBDBD7D7DFCFDFFFFDEDEBEBE7E7EFFB2
:1004AD00FFEFEFEFEFEF0FFFFFF7F7F7F7F787FF2F
:1004BD00FFFB7B7B7B7BC3FFFF7DBDBDBDBD61FFB7
:1004CD00FF3EDEDEDEDE30FFFF1FEFEFEFEF18FF4A
:1004DD00FF8F777777778CFFFFC7BBBBBBBBC6FFA3
:1004ED00FFE35D5DDDDD63FFFF71AEAE6EEE31FFEF
:1004FD00FF38D7D737F718FFFF1CEBEB9B7B8CFF33
:10050D00FF8EF5F5CDBDC6FFFF477A7A665E63FFB8
:10051D00FF23BD3DB3AF31FFFF11DE1ED9D718FF4D
:10052D00FF08EF0FECEB0CFFFF84F787F6F586FF66
:10053D00FFC2FBC3FBFAC3FFFFE1FDE1FDFDE1FFE0
:10054D00FFF0FEF0FEFEF0FFFF787F787F7F78FFF3
:10055D00FFBCBFBCBFBF3CFFFFDEDFDEDFDF1EFF2A
:10056D00C0F9A4B0999282F880908883C6A1868E36
:01057D007FFE
:1006C9004100230041000B0042001CC0C041000A48
:1006D900F44200A4000042001E0000C103480014B7
:1006E900FFBFFFFFFDFDFDFF4100090260800024FF
:1006F90004010501060100000000000000000000DF
:1007090000000000000000000000000000000000E0
:1007190000000000000000000000000000000000D0
:1007290000000000000000000000000000000000C0
:1007390000000000000000000000000000000000B0
:1007490000000000000000000000000000000000A0
:100759000000000000000000000000000000000090
:100769000000000000000000000000000000000080
:10077900420007010648000CFF00010000FF0001CC
:1007890041002200C185C187C186C184C181C102DE
:10079900C1004100000041000100410002FF410089
:0E07A90003FF410004FF410005FF410006FF71
:10000E00E49000A6F0D2AFC294758911758CFC7580
:10001E008A67D2A9D28CD28E90000AE0FFC39000DC
:10002E00A5E09F9000A4E0940040ED3003EAE4F0D8
:10003E00A3F03000559000A6F09000A6E0FFC36438
:10004E008094885037EF3395E0FE90000BE075F00A
:10005E0008A424ADF582E43404F583E5822FF582FD
:10006E00E5833EF583E493FD74142FF58274003E10
:10007E00F583EDF09000A6E004F080BD90000BE05B
:10008E0004F0E0B41892E4F0808E30025AE490004E
:10009E00A6F09000A6E0FFC3648094885037EF333B
:1000AE0095E0FE900023E075F008A424EDF582E4BF
:1000BE003403F583E5822FF582E5833EF583E493E1
:1000CE00FD74142FF58274003EF583EDF09000A6BA
:1000DE00E004F080BD900023E004F0E064186003BB
:1000EE00020026F0020026900009E075F002A4241A
:1000FE0024F9740035F0FA7B0178207C007D017EB6
:10010E00007F0212064E900009E0FF25E02425F53F
:10011E0082E43400F583E0FE7401A806088002C371
:10012E0033D8FCFEEF25E02424F582E43400F58379
:10013E00E0FF2414F582E43400F583E04EFE7414DF
:10014E002FF582E43400F583EEF0900009E0900084
:10015E00A6F09000A6E0FFD3648094804035EF3384
:10016E0095E0FEEF25E0FFEE33FE74222FF97400CA
:10017E003EFA7B01C00174242FF974003EA801FCE5
:10018E007D01D0017E007F0212064E9000A6E01483
:10019E00F080BF900022E0FF3395E0FEEF25E0FFF8
:1001AE00EE33FE740C2FF58274003EF583E0FD9065
:1001BE000024E02DF0740D2FF58274003EF583E0DF
:1001CE00FF900025E02FF0900024E0B4FF037407A9
:1001DE00F0900024E0B40802E4F0900025E0B4FFB3
:1001EE00037407F0900025E0B40802E4F0900007D5
:1001FE00E0FF900024E06F600302031B900008E014
:10020E00FF900025E06F600302031B900009E004DD
:10021E00F075F002A42424F9740035F0A801FC7DD9
:10022E00017B017A0079207E007F0212064E90003B
:10023E0009E0FF25E02425F582E43400F583E0FE95
:10024E007401A806088002C333D8FCF4FEEF25E043
:10025E002424F582E43400F583E0FF2414F582E4CF
:10026E003400F583E05EFE74142FF582E43400F55D
:10027E0083EEF090001FE004F0700690001EE00484
:10028E00F090001EE07004A3E0641A7002D202E542
:10029E008B5407900007F0E58D5407A3F0900007EC
:1002AE00E02414F582E43400F583E0FDFB7A00903F
:1002BE000008E0FC74017E00A804088005C333CE5C
:1002CE0033CED8F9FFEE5AFEEF5B4E60C27401A832
:1002DE0004088002C333D8FCFF900007E0FEED4F08
:1002EE00FD74142EF582E43400F583EDF0EFF4FF87
:1002FE00900007E0FE2414F582E43400F583E05FFD
:10030E00FF74142EF582E43400F583EFF09000A60E
:10031E007401F0900009E0FF9000A6E0FD3395E037
:10032E00FCD3ED9F7480F86C98503EED25E0FFEC09
:10033E0033FE74242FF58274003EF583E0FD9000A9
:10034E0024E0B5051C74252FF58274003EF583E07C
:10035E00FF900025E0B50709D200E490001EF0A33F
:10036E00F09000A6E004F080AA900025E0FF740152
:10037E00A807088002C333D8FCF4FF900024E0FEE7
:10038E002414F582E43400F583E05FFF74142EF537
:10039E0082E43400F583EFF090001EE0FAA3E0FB58
:1003AE007C007D0AFFAE02120674746D2DF5827408
:1003BE00053CF583E49390001CF07C007D0AAF03AE
:1003CE00AE021206747C007D0A120674746D2DF551
:0F03DE008274053CF583E49390001DF002002625
:03000B0002097077
:10097000C0E0C0F0C083C082C0D075D000C000C04D
:1009800001C002C003C004C005C006C007758CFCCE
:10099000758A671209181207B8D007D006D005D09B
:1009A00004D003D002D001D000D0D0D082D083D0E8
:0409B000F0D0E03271
:100918009000A5E004F070069000A4E004F09000B8
:1009280000E004F0E0B40A02E4F0900000E0FFC345
:1009380094025018D2937580FFE59054F8FEEF4E5C
:10094800F590741C2FF582E434008016C2937580EC
:10095800FF900000E0FF24FEF59074122FF582E46A
:070968003400F583E0F58087
:01096F002265
:1007B800900001E014601D14602D14603D24037046
:1007C80052C2A3900002E025E0FFA2A7E4334FF055
:1007D800D2A38037C2A2900004E025E0FFA2A7E4DC
:1007E800334FF0D2A28024C2A1900003E025E0FF9D
:1007F800A2A7E4334FF0D2A18011C2A0900005E077
:1008080025E0FFA2A7E4334FF0D2A0900001E00456
:10081800F08016C2A0900006E025E0FFA2A6E4330F
:100828004FF0D2A0E4900001F0900002E0700B902D
:100838000022E064016003E4F022900003E0700A03
:10084800900022E060047401F022900004E0700C33
:10085800900022E0640360047402F022900005E036
:10086800700C900022E0640260047403F02290008F
:1008780006E0FF7003C20522EFB4FF07200504D28B
:0308880005B203B3
:01088B00224A
:1008980002000EE493A3F8E493A34003F68001F268
:1008A80008DFF48029E493A3F85407240CC8C33361
:1008B800C4540F4420C8834004F456800146F6DF30
:1008C800E4800B01020408102040809006C9E47EF1
:1008D800019360BCA3FF543F30E509541FFEE49325
:1008E800A360010ECF54C025E060A840B8E493A3EC
:1008F800FAE493A3F8E493A3C8C582C8CAC583CA17
:10090800F0A3C8C582C8CAC583CADFE9DEE780BECE
:0107B7000041
:10057E00E709F608DFFA8046E709F208DFFA803E5F
:10058E0088828C83E709F0A3DFFA8032E309F6084C
:10059E00DFFA8078E309F208DFFA807088828C83B4
:1005AE00E309F0A3DFFA806489828A83E0A3F60868
:1005BE00DFFA805889828A83E0A3F208DFFA804C42
:1005CE0080D280FA80C680D4806980F28033801019
:1005DE0080A680EA809A80A880DA80E280CA803382
:1005EE0089828A83ECFAE493A3C8C582C8CCC583FA
:1005FE00CCF0A3C8C582C8CCC583CCDFE9DEE780CA
:10060E000D89828A83E493A3F608DFF9ECFAA9F048
:10061E00EDFB2289828A83ECFAE0A3C8C582C8CC9E
:10062E00C583CCF0A3C8C582C8CCC583CCDFEADEB7
:10063E00E880DB89828A83E493A3F208DFF980CC19
:10064E0088F0EF60010E4E60C388F0ED2402B40412
:10065E000050B9F582EB2402B4040050AF232345B9
:06066E0082239005CE730B
:10067400BC000BBE0029EF8DF084FFADF022E4CC6A
:10068400F875F008EF2FFFEE33FEEC33FCEE9DEC33
:10069400984005FCEE9DFE0FD5F0E9E4CEFD22ED79
:1006A400F8F5F0EE8420D21CFEADF075F008EF2FC3
:1006B400FFED33FD4007985006D5F0F222C398FDB4
:0506C4000FD5F0EA2251
:00000001FF
