:0300000002088F64
:0C088F00787FE4F6D8FD7581200208D6C1
:1003F000FFEFEFDFDF3FBFFFFFF7776F6F9FDFFF9D
:10040000FFFBBBB7B74FEFFFFFFDDDDBDB2777FF60
:10041000FFFEEE6D6D93BBFFFF7F77B6B6C9DDFFC4
:10042000FFBFBBDBDBE4EEFFFF5FDDEDEDF277FF4F
:10043000FF2F6E7676793BFFFF17B7BBBBBC1DFF66
:10044000FF8BDBDDDDDE8EFFFF456D6E6E6F47FFE0
:10045000FFA236B7B7B7A3FFFFD19B5BDBDBD1FFB2
:10046000FFE8CDAD6DEDE8FFFFF4E6D6B676F4FF1C
:10047000FF7A736B5B3B7AFFFFBDB9B5AD9DBDFFE6
:10048000FFDEDCDAD6CEDEFFFFEFEEEDEBE7EFFFCF
:10049000FFF7F7F6F5F3F7FFFF7B7BFBFAF9FBFFBE
:1004A000FFBDBD7D7DFCFDFFFFDEDEBEBE7E7EFFAF
:1004B000FFEFEFEFEFEF0FFFFFF7F7F7F7F787FF2C
:1004C000FFFB7B7B7B7BC3FFFF7DBDBDBDBD61FFB4
:1004D000FF3EDEDEDEDE30FFFF1FEFEFEFEF18FF47
:1004E000FF8F777777778CFFFFC7BBBBBBBBC6FFA0
:1004F000FFE35D5DDDDD63FFFF71AEAE6EEE31FFEC
:10050000FF38D7D737F718FFFF1CEBEB9B7B8CFF2F
:10051000FF8EF5F5CDBDC6FFFF477A7A665E63FFB5
:10052000FF23BD3DB3AF31FFFF11DE1ED9D718FF4A
:10053000FF08EF0FECEB0CFFFF84F787F6F586FF63
:10054000FFC2FBC3FBFAC3FFFFE1FDE1FDFDE1FFDD
:10055000FFF0FEF0FEFEF0FFFF787F787F7F78FFF0
:10056000FFBCBFBCBFBF3CFFFFDEDFDEDFDF1EFF27
:10057000C0F9A4B0999282F880908883C6A1868E33
:010580007FFB
:1006CC004100230041000B0042001CC0C041000A45
:1006DC00F44200A4000042001E0000C103480014B4
:1006EC00FFBFFFFFFDFDFDFF4100090260800024FC
:1006FC0004010501060100000000000000000000DC
:10070C0000000000000000000000000000000000DD
:10071C0000000000000000000000000000000000CD
:10072C0000000000000000000000000000000000BD
:10073C0000000000000000000000000000000000AD
:10074C00000000000000000000000000000000009D
:10075C00000000000000000000000000000000008D
:10076C00000000000000000000000000000000007D
:10077C00420007010648000CFF00010000FF0001C9
:10078C0041002200C185C187C186C184C181C102DB
:10079C00C1004100000041000100410002FF410086
:0E07AC0003FF410004FF410005FF410006FF6E
:10000E00E49000A6F0D2AFC294758911758CFC7580
:10001E008A67D2A9D28CD28E90000AE0FFC39000DC
:10002E00A5E09F9000A4E0940040ED3003EAE4F0D8
:10003E00A3F03000559000A6F09000A6E0FFC36438
:10004E008094885037EF3395E0FE90000BE075F00A
:10005E0008A424B0F582E43404F583E5822FF582FA
:10006E00E5833EF583E493FD74142FF58274003E10
:10007E00F583EDF09000A6E004F080BD90000BE05B
:10008E0004F0E0B41892E4F0808E30025AE490004E
:10009E00A6F09000A6E0FFC3648094885037EF333B
:1000AE0095E0FE900023E075F008A424F0F582E4BC
:1000BE003403F583E5822FF582E5833EF583E493E1
:1000CE00FD74142FF58274003EF583EDF09000A6BA
:1000DE00E004F080BD900023E004F0E064186003BB
:1000EE00020026F0020026900009E075F002A4241A
:1000FE0024F9740035F0FA7B0178207C007D017EB6
:10010E00007F02120651900009E0FF25E02425F53C
:10011E0082E43400F583E0FE7401A806088002C371
:10012E0033D8FCFEEF25E02424F582E43400F58379
:10013E00E0FF2414F582E43400F583E04EFE7414DF
:10014E002FF582E43400F583EEF0900009E0900084
:10015E00A6F09000A6E0FFD3648094804035EF3384
:10016E0095E0FEEF25E0FFEE33FE74222FF97400CA
:10017E003EFA7B01C00174242FF974003EA801FCE5
:10018E007D01D0017E007F021206519000A6E01480
:10019E00F080BF900022E0FF3395E0FEEF25E0FFF8
:1001AE00EE33FE740C2FF58274003EF583E0FD9065
:1001BE000024E02DF0740D2FF58274003EF583E0DF
:1001CE00FF900025E02FF0900024E0B4FF037407A9
:1001DE00F0900024E0B40802E4F0900025E0B4FFB3
:1001EE00037407F0900025E0B40802E4F0900007D5
:1001FE00E0FF900024E06F600302031E900008E011
:10020E00FF900025E06F600302031E900009E004DA
:10021E00F075F002A42424F9740035F0A801FC7DD9
:10022E00017B017A0079207E007F02120651900038
:10023E0009E0FF25E02425F582E43400F583E0FE95
:10024E007401A806088002C333D8FCF4FEEF25E043
:10025E002424F582E43400F583E0FF2414F582E4CF
:10026E003400F583E05EFE74142FF582E43400F55D
:10027E0083EEF090001FE004F0700690001EE00484
:10028E00F090001EE07004A3E064407005D20202FC
:10029E000026E58B5407900007F0E58D5407A3F078
:1002AE00900007E02414F582E43400F583E0FDFBB2
:1002BE007A00900008E0FC74017E00A80408800516
:1002CE00C333CE33CED8F9FFEE5AFEEF5B4E60C28B
:1002DE007401A804088002C333D8FCFF900007E025
:1002EE00FEED4FFD74142EF582E43400F583EDF02F
:1002FE00EFF4FF900007E0FE2414F582E43400F5DD
:10030E0083E05FFF74142EF582E43400F583EFF082
:10031E009000A67401F0900009E0FF9000A6E0FDA9
:10032E003395E0FCD3ED9F7480F86C98503EED252C
:10033E00E0FFEC33FE74242FF58274003EF583E06B
:10034E00FD900024E0B5051C74252FF58274003E47
:10035E00F583E0FF900025E0B50709D200E4900098
:10036E001EF0A3F09000A6E004F080AA900025E015
:10037E00FF7401A807088002C333D8FCF4FF900075
:10038E0024E0FE2414F582E43400F583E05FFF746C
:10039E00142EF582E43400F583EFF090001EE0FA9F
:1003AE00A3E0FB7C007D0AFFAE0212067774702D6F
:1003BE00F58274053CF583E49390001CF07C007D7F
:1003CE000AAF03AE021206777C007D0A120677741E
:1003DE00702DF58274053CF583E49390001DF002B8
:0203EE000026E7
:03000B0002097374
:10097300C0E0C0F0C083C082C0D075D000C000C04A
:1009830001C002C003C004C005C006C007758CFCCB
:10099300758A6712091B1207BBD007D006D005D092
:1009A30004D003D002D001D000D0D0D082D083D0E5
:0409B300F0D0E0326E
:10091B009000A5E004F070069000A4E004F09000B5
:10092B0000E004F0E0B40A02E4F0900000E0FFC342
:10093B0094025018D2937580FFE59054F8FEEF4E59
:10094B00F590741C2FF582E434008016C2937580E9
:10095B00FF900000E0FF24FEF59074122FF582E467
:07096B003400F583E0F58084
:010972002262
:1007BB00900001E014601D14602D14603D24037043
:1007CB0052C2A3900002E025E0FFA2A7E4334FF052
:1007DB00D2A38037C2A2900004E025E0FFA2A7E4D9
:1007EB00334FF0D2A28024C2A1900003E025E0FF9A
:1007FB00A2A7E4334FF0D2A18011C2A0900005E074
:10080B0025E0FFA2A7E4334FF0D2A0900001E00453
:10081B00F08016C2A0900006E025E0FFA2A6E4330C
:10082B004FF0D2A0E4900001F0900002E0700B902A
:10083B000022E064016003E4F022900003E0700A00
:10084B00900022E060047401F022900004E0700C30
:10085B00900022E0640360047402F022900005E033
:10086B00700C900022E0640260047403F02290008C
:10087B0006E0FF7003C20522EFB4FF07200504D288
:03088B0005B203B0
:01088E002247
:10089B0002000EE493A3F8E493A34003F68001F265
:1008AB0008DFF48029E493A3F85407240CC8C3335E
:1008BB00C4540F4420C8834004F456800146F6DF2D
:1008CB00E4800B01020408102040809006CCE47EEB
:1008DB00019360BCA3FF543F30E509541FFEE49322
:1008EB00A360010ECF54C025E060A840B8E493A3E9
:1008FB00FAE493A3F8E493A3C8C582C8CAC583CA14
:10090B00F0A3C8C582C8CAC583CADFE9DEE780BECB
:0107BA00003E
:10058100E709F608DFFA8046E709F208DFFA803E5C
:1005910088828C83E709F0A3DFFA8032E309F60849
:1005A100DFFA8078E309F208DFFA807088828C83B1
:1005B100E309F0A3DFFA806489828A83E0A3F60865
:1005C100DFFA805889828A83E0A3F208DFFA804C3F
:1005D10080D280FA80C680D4806980F28033801016
:1005E10080A680EA809A80A880DA80E280CA80337F
:1005F10089828A83ECFAE493A3C8C582C8CCC583F7
:10060100CCF0A3C8C582C8CCC583CCDFE9DEE780C6
:100611000D89828A83E493A3F608DFF9ECFAA9F045
:10062100EDFB2289828A83ECFAE0A3C8C582C8CC9B
:10063100C583CCF0A3C8C582C8CCC583CCDFEADEB4
:10064100E880DB89828A83E493A3F208DFF980CC16
:1006510088F0EF60010E4E60C388F0ED2402B4040F
:100661000050B9F582EB2402B4040050AF232345B6
:0606710082239005D17305
:10067700BC000BBE0029EF8DF084FFADF022E4CC67
:10068700F875F008EF2FFFEE33FEEC33FCEE9DEC30
:10069700984005FCEE9DFE0FD5F0E9E4CEFD22ED76
:1006A700F8F5F0EE8420D21CFEADF075F008EF2FC0
:1006B700FFED33FD4007985006D5F0F222C398FDB1
:0506C7000FD5F0EA224E
:00000001FF
